:100000000C9434000C943E000C943E000C943E0082
:100010000C943E000C943E000C943E000C943E0068
:100020000C943E000C943E000C943E000C943E0058
:100030000C943E000C943E000C943E000C943E0048
:100040000C943E000C943E000C943E000C943E0038
:100050000C943E000C943E000C943E000C943E0028
:100060000C943E000C943E0011241FBECFEFD8E04C
:10007000DEBFCDBF0E949E000C94E2000C940000F5
:10008000EAE7F0E084E88083ACE7B0E08C9180643C
:100090008C93808180688083089590917C00907F0C
:1000A00090937C0090917C00982B90937C0020E1B1
:1000B00030E080E090E040917A00406440937A0024
:1000C00040917A0046FDFCCF409178005091790034
:1000D000840F951F2150310971F79C0136952795A2
:1000E00036952795C901089507C006B407FEFDCFD0
:1000F000019726B52138E8F70097B9F708950F93CF
:100100001F93CF93DF93C0E0D0E0082F10E00BC027
:100110002D9A88EC90E00E9474002D9888EC90E075
:100120000E9474002196C017D10794F384EF91E0E8
:10013000DF91CF911F910F910C94740014BC82E059
:1001400085BD8BE3809380008FEF90E090938900D2
:100150008093880010928B0010928A0081E1809336
:10016000810080E8809361001092610087E08093B5
:10017000B1008FEF85B984E284B92D9A83E00E94A3
:100180007F000E9440008FEF9FEF90938900809343
:10019000880080918800909189009695879590932A
:1001A00089008093880080918800909189009695BD
:1001B000879590938B0080938A0080E593EC0E9452
:0801C0007400E7CFF894FFCFB3
:00000001FF
