:100000000C9434000C9448000C9456000C94460058
:100010000C9446000C9446000C9446000C94460048
:100020000C9446000C9446000C9446000C94460038
:100030000C9446000C9446000C9446000C94460028
:100040000C9446000C9446000C9446000C94460018
:100050000C9446000C9446000C9446000C94460008
:100060000C9446000C94460011241FBECFEFD8E03C
:10007000DEBFCDBF11E0A0E0B1E001C01D92A23013
:10008000B107E1F70E9496000C94BE000C940000AA
:100090001F920F920FB60F921124109285001092AA
:1000A00084000F900FBE0F901F9018951F920F9213
:1000B0000FB60F9211248F939F938091840090919B
:1000C000850090930101809300019F918F910F9083
:1000D0000FBE0F901F90189507C006B407FEFDCF06
:1000E000019726B52138E8F70097B9F708950F93DF
:1000F0001F93CF93DF93C0E0D0E0082F10E00BC038
:100100002D9A8CE291E00E946C002D988CE291E097
:100110000E946C002196C017D10794F38CED95E0F6
:10012000DF91CF911F910F910C946C00E89AE99A9E
:1001300080916900836080936900809169008C6080
:1001400080936900789414BC82E085BD81E080933F
:1001500081001AB81BB884E00E94770080910001EA
:100160009091010123E0969587952A95E1F70E94E9
:10017000770080EA9FE00E946C00F0CFF894FFCFF8
:00000001FF
