:100000000C9434000C949E000C943E000C943E0022
:100010000C943E000C943E000C943E000C943E0068
:100020000C943E000C943E000C943E000C943E0058
:100030000C943E000C943E000C943E000C943E0048
:100040000C943E000C943E000C943E000C943E0038
:100050000C943E000C943E000C943E000C943E0028
:100060000C943E000C943E0011241FBECFEFD8E04C
:10007000DEBFCDBF0E94C3000C9400010C940000B1
:10008000EAE7F0E084E88083ACE7B0E08C9180643C
:100090008C93808180688083089590917C00907F0C
:1000A00090937C0090917C00982B90937C0020E1B1
:1000B00030E080E090E040917A00406440937A0024
:1000C00040917A0046FDFCCF409178005091790034
:1000D000840F951F2150310971F79C0136952795A2
:1000E00036952795C901089507C006B407FEFDCFD0
:1000F000019726B52138E8F70097B9F708950F93CF
:100100001F93CF93DF93C0E0D0E0082F10E00BC027
:100110002D9A8CE291E00E9474002D988CE291E07F
:100120000E9474002196C017D10794F38CED95E0DE
:10013000DF91CF911F910F910C9474001F920F9239
:100140000FB60F9211242F933F934F935F936F93AA
:100150007F938F939F93AF93BF93EF93FF9382E02F
:100160000E947F00FF91EF91BF91AF919F918F917E
:100170007F916F915F914F913F912F910F900FBEA3
:100180000F901F901895E89A809169008360809382
:100190006900789414BC82E085BD8BE38093800075
:1001A0008FEF90E0909389008093880010928B00ED
:1001B00010928A0081E18093810087E08093B100F2
:1001C0008FEF85B994E294B98AB92D9A89E00E949B
:1001D0007F000E9440008FEF9FEF909389008093F3
:1001E0008800CFEF87E00E947F001BB888E893E18A
:1001F0000E947400CBB988E893E10E947400F2CFAA
:04020000F894FFCFA0
:00000001FF
